{
  "contractName": "Token",
  "abi": [
    {
      "constant": true,
      "inputs": [],
      "name": "totalSupply",
      "outputs": [
        {
          "name": "",
          "type": "uint256"
        }
      ],
      "payable": false,
      "stateMutability": "view",
      "type": "function"
    },
    {
      "constant": false,
      "inputs": [],
      "name": "Tokens",
      "outputs": [],
      "payable": false,
      "stateMutability": "nonpayable",
      "type": "function"
    }
  ],
  "bytecode": "0x608060405234801561001057600080fd5b5060c88061001f6000396000f3006080604052600436106049576000357c0100000000000000000000000000000000000000000000000000000000900463ffffffff1680630cf283b114604e57806318160ddd146062575b600080fd5b348015605957600080fd5b506060608a565b005b348015606d57600080fd5b5060746096565b6040518082815260200191505060405180910390f35b620f4240600081905550565b600054815600a165627a7a72305820b224e01b9e6ecdf97ade3ee1b21a5baad83ef3daa173be4bf6cb79bdab78e81c0029",
  "source": "pragma solidity >=0.4.21 <0.6.0;\n\ncontract Token {\n\n  uint256 public totalSupply;\n  //constructor \n  function Tokens() public {\n    totalSupply = 1000000;\n  }\n}",
  "sourcePath": "/Users/yosuke.aramaki/Desktop/MyApps/erc20_protp/contracts/Token.sol",
  "compiler": {
    "name": "solc",
    "version": "0.4.25+commit.59dbf8f1.Emscripten.clang"
  },
  "schemaVersion": "2.0.2",
  "updatedAt": "2019-05-02T13:03:10.375Z"
}